{
  "address": "0xe7f1725E7734CE288F8367e1Bb143E90bb3F0512",
  "abi": [
    {
      "inputs": [
        {
          "internalType": "address",
          "name": "priceFeedAddress",
          "type": "address"
        }
      ],
      "stateMutability": "nonpayable",
      "type": "constructor"
    },
    {
      "inputs": [],
      "name": "FundMe__NotOwner",
      "type": "error"
    },
    {
      "stateMutability": "payable",
      "type": "fallback"
    },
    {
      "inputs": [],
      "name": "MINIMUM_USD",
      "outputs": [
        {
          "internalType": "uint256",
          "name": "",
          "type": "uint256"
        }
      ],
      "stateMutability": "view",
      "type": "function"
    },
    {
      "inputs": [],
      "name": "cheaperWithdraw",
      "outputs": [],
      "stateMutability": "payable",
      "type": "function"
    },
    {
      "inputs": [],
      "name": "fund",
      "outputs": [],
      "stateMutability": "payable",
      "type": "function"
    },
    {
      "inputs": [],
      "name": "withdraw",
      "outputs": [],
      "stateMutability": "payable",
      "type": "function"
    },
    {
      "stateMutability": "payable",
      "type": "receive"
    }
  ],
  "transactionHash": "0xea50a7f372edc3b5f36a61b86df087d00269d7f264f4ab19e2b71b246cc31afc",
  "args": [
    "0x5FbDB2315678afecb367f032d93F642f64180aa3"
  ],
  "numDeployments": 1,
  "solcInputHash": "4944e7c960eecb3f317d692b754a253d",
  "bytecode": "0x60a060405234801561001057600080fd5b506040516108c43803806108c483398101604081905261002f91610058565b33608052600280546001600160a01b0319166001600160a01b0392909216919091179055610088565b60006020828403121561006a57600080fd5b81516001600160a01b038116811461008157600080fd5b9392505050565b6080516108136100b1600039600081816101a3015281816102ea015261040001526108136000f3fe6080604052600436106100435760003560e01c80633ccfd60b1461005a5780636b69a59214610062578063b60d428814610052578063be2693f01461009157610052565b3661005257610050610099565b005b610050610099565b610050610198565b34801561006e57600080fd5b5061007f6802b5e3af16b188000081565b60405190815260200160405180910390f35b6100506102df565b6002546802b5e3af16b1880000906100bb9034906001600160a01b0316610480565b101561010e5760405162461bcd60e51b815260206004820152601b60248201527f596f75206e65656420746f207370656e64206d6f72652045544821000000000060448201526064015b60405180910390fd5b336000908152602081905260408120805434929061012d908490610631565b90915550506001805480820182556000919091527fb10e2d527612073b26eecdfd717e6a320cf44b4afac2b0732d9fcbe2b7fa0cf60180546001600160a01b031916331790556040805160608101909152603280825261019691906107ac6020830139336104b8565b565b336001600160a01b037f000000000000000000000000000000000000000000000000000000000000000016146101e15760405163579610db60e01b815260040160405180910390fd5b60005b6001548110156102375760006001828154811061020357610203610644565b60009182526020808320909101546001600160a01b031682528190526040812055508061022f8161065a565b9150506101e4565b506040805160008152602081019182905251610255916001916105a1565b50604051600090339047908381818185875af1925050503d8060008114610298576040519150601f19603f3d011682016040523d82523d6000602084013e61029d565b606091505b50509050806102dc5760405162461bcd60e51b815260206004820152600b60248201526a10d85b1b0819985a5b195960aa1b6044820152606401610105565b50565b336001600160a01b037f000000000000000000000000000000000000000000000000000000000000000016146103285760405163579610db60e01b815260040160405180910390fd5b6000600180548060200260200160405190810160405280929190818152602001828054801561038057602002820191906000526020600020905b81546001600160a01b03168152600190910190602001808311610362575b5050505050905060005b81518110156103dd5760008282815181106103a7576103a7610644565b6020908102919091018101516001600160a01b0316600090815290819052604081205550806103d58161065a565b91505061038a565b5060408051600081526020810191829052516103fb916001916105a1565b5060007f00000000000000000000000000000000000000000000000000000000000000006001600160a01b03164760405160006040518083038185875af1925050503d8060008114610469576040519150601f19603f3d011682016040523d82523d6000602084013e61046e565b606091505b505090508061047c57600080fd5b5050565b60008061048c836104fd565b90506000670de0b6b3a76400006104a38684610673565b6104ad919061068a565b925050505b92915050565b61047c82826040516024016104ce9291906106ac565b60408051601f198184030181529190526020810180516001600160e01b031663319af33360e01b179052610580565b600080826001600160a01b031663feaf968c6040518163ffffffff1660e01b815260040160a060405180830381865afa15801561053e573d6000803e3d6000fd5b505050506040513d601f19601f82011682018060405250810190610562919061072b565b505050915050806402540be400610579919061077b565b9392505050565b80516a636f6e736f6c652e6c6f67602083016000808483855afa5050505050565b8280548282559060005260206000209081019282156105f6579160200282015b828111156105f657825182546001600160a01b0319166001600160a01b039091161782556020909201916001909101906105c1565b50610602929150610606565b5090565b5b808211156106025760008155600101610607565b634e487b7160e01b600052601160045260246000fd5b808201808211156104b2576104b261061b565b634e487b7160e01b600052603260045260246000fd5b60006001820161066c5761066c61061b565b5060010190565b80820281158282048414176104b2576104b261061b565b6000826106a757634e487b7160e01b600052601260045260246000fd5b500490565b604081526000835180604084015260005b818110156106da57602081870181015160608684010152016106bd565b50600060608285018101919091526001600160a01b03949094166020840152601f01601f191690910190910192915050565b805169ffffffffffffffffffff8116811461072657600080fd5b919050565b600080600080600060a0868803121561074357600080fd5b61074c8661070c565b945060208601519350604086015192506060860151915061076f6080870161070c565b90509295509295909350565b80820260008212600160ff1b841416156107975761079761061b565b81810583148215176104b2576104b261061b56fe2d2d2d2d2d2d2d2d2d2d2d2d2d2d2d7468652073656e646572206973202573202d2d2d2d2d2d2d2d2d2d2d2d2d2d2d2d2d2da264697066735822122058638e7685a7dda2bc27362f7c9f95905fb50eb67e95730064826cbb4ff545ef64736f6c63430008110033",
  "devdoc": {
    "author": "Yeort",
    "details": "the",
    "kind": "dev",
    "methods": {},
    "title": "A contract for crowd funding",
    "version": 1
  },
  "userdoc": {
    "kind": "user",
    "methods": {},
    "notice": "The",
    "version": 1
  },
  "storageLayout": {
    "storage": [
      {
        "astId": 60,
        "contract": "contracts/FundMe.sol:FundMe",
        "label": "s_addressToAmountFunded",
        "offset": 0,
        "slot": "0",
        "type": "t_mapping(t_address,t_uint256)"
      },
      {
        "astId": 63,
        "contract": "contracts/FundMe.sol:FundMe",
        "label": "s_funders",
        "offset": 0,
        "slot": "1",
        "type": "t_array(t_address)dyn_storage"
      },
      {
        "astId": 75,
        "contract": "contracts/FundMe.sol:FundMe",
        "label": "priceFeed",
        "offset": 0,
        "slot": "2",
        "type": "t_contract(AggregatorV3Interface)45"
      }
    ],
    "types": {
      "t_address": {
        "encoding": "inplace",
        "label": "address",
        "numberOfBytes": "20"
      },
      "t_array(t_address)dyn_storage": {
        "base": "t_address",
        "encoding": "dynamic_array",
        "label": "address[]",
        "numberOfBytes": "32"
      },
      "t_contract(AggregatorV3Interface)45": {
        "encoding": "inplace",
        "label": "contract AggregatorV3Interface",
        "numberOfBytes": "20"
      },
      "t_mapping(t_address,t_uint256)": {
        "encoding": "mapping",
        "key": "t_address",
        "label": "mapping(address => uint256)",
        "numberOfBytes": "32",
        "value": "t_uint256"
      },
      "t_uint256": {
        "encoding": "inplace",
        "label": "uint256",
        "numberOfBytes": "32"
      }
    }
  }
}